:020000040800F2
:1000000000070020890100082F160008DD150008F0
:100010002D160008710300083119000800000000C7
:10002000000000000000000000000000331600087F
:1000300073030008000000003116000835160008A0
:10004000A3010008A3010008A3010008A301000800
:10005000A3010008A3010008A3010008A3010008F0
:10006000A3010008A3010008A3010008A3010008E0
:10007000A3010008A3010008A3010008A3010008D0
:10008000A3010008A301000891020008A3010008D1
:10009000A3010008A3010008A3010008A3010008B0
:1000A000A3010008A3010008A3010008A3010008A0
:1000B000A3010008A3010008A3010008A301000890
:1000C000A3010008A3010008A3010008A301000880
:1000D000A301000825190008A3010008A3010008D6
:1000E000A3010008A3010008A301000800F002F822
:1000F00000F03AF80AA090E8000C82448344AAF188
:100100000107DA4501D100F02FF8AFF2090EBAE885
:100110000F0013F0010F18BFFB1A43F0010318473B
:10012000C8190000E8190000103A24BF78C878C147
:10013000FAD8520724BF30C830C144BF04680C60ED
:10014000704700000023002400250026103A28BF35
:1001500078C1FBD8520728BF30C148BF0B60704739
:100160001FB51FBD10B510BD00F058F81146FFF7C0
:10017000F7FF01F011FC00F076F803B4FFF7F2FF8F
:1001800003BC00F07DF8000009488047094800479B
:10019000FEE7FEE7FEE7FEE7FEE7FEE7FEE7FEE737
:1001A000FEE7FEE704480549054A064B7047000094
:1001B000A1160008ED000008000100200007002043
:1001C00000030020000300204FF0000200B513469A
:1001D00094469646203922BFA0E80C50A0E80C5067
:1001E000B1F12001BFF4F7AF090728BFA0E80C5018
:1001F00048BF0CC05DF804EB890028BF40F8042B11
:1002000008BF704748BF20F8022B11F0804F18BF7D
:1002100000F8012B7047704770477047754600F033
:100220002BF8AE4605006946534620F00700854688
:1002300018B020B5FFF7B6FFBDE820404FF000062C
:100240004FF000074FF000084FF0000B21F00701BE
:10025000AC46ACE8C009ACE8C009ACE8C009ACE801
:10026000C0098D46704710B50446AFF300802046A4
:10027000BDE81040FFF781BF00487047A000002094
:1002800001491820ABBEFEE72600020070470000BF
:10029000014800F0F3B800001C00002070B50446CF
:1002A00000688168C943C90717D1816821F001013D
:1002B000816000F0F5FB05460AE000BF00F0F0FBAE
:1002C000401B022804D920688068C043C00706D0BC
:1002D00020688068C043C007F0D0002070BDA06ACD
:1002E00040F01000A062E06A40F00100E0620120EE
:1002F00070BD0000F8B500260446009600688168CD
:10030000C943C9072DD0816841F0010181601648B9
:1003100016490068B0FBF1F000E0401E0090002894
:10032000FBD100F0BDFB054616E000BF00F0B8FBB6
:10033000401B022810D920688068C043C0070BD03A
:10034000A06A40F01000A062E06A40F00100E062A4
:1003500084F824600120F8BD20688068C043C0078D
:10036000E4D10020F8BD00001000002040420F0042
:10037000FEE7704770470000F8B50024009490F83D
:1003800024202546012A12D0012280F824204A6820
:100390001F23072A0DD20668776B521E02EB8202DA
:1003A00093409F430B6893401F43776319E00220FB
:1003B000F8BD06680D2A0AD2376BD21F02EB820203
:1003C00093409F430B6893401F43376309E0F76AEC
:1003D0000D3A02EB820293409F430B6893401F4308
:1003E000F7620A68072306680A2A0AD3F7680A3AF6
:1003F00002EB420293409F438B6893401F43F76098
:1004000008E0376902EB420293409F438B689340B8
:100410001F4337610A68102A01D0112A20D1124BDC
:1004200002689A4217D193681B0219D4936843F467
:10043000000393600968102912D10C490C4A09681D
:10044000B1FBF2F101EB8101490000E0491E00918E
:100450000029FBD104E0816A41F02001816201247E
:1004600080F824502046F8BD0024014010000020F0
:1004700040420F0070470068C06C704770B504467A
:10048000006806684568A90625D5B10723D5A16A85
:10049000C90603D4A16A41F40071A1628168C1F365
:1004A0004241072910D1217B71B9416821F0200117
:1004B0004160A06A20F48070A062A06AC00403D4E6
:1004C000A06A40F00100A0622046FFF7D3FF216838
:1004D0006FF01200086028062ED570072CD5A06A90
:1004E000C00603D4A06A40F40050A062206881686E
:1004F000C1F30231072909D04168490515D4816843
:10050000C1F34241072910D1217B71B9416821F023
:1005100080014160A06A20F48050A062A06AC005FA
:1005200003D4A06A40F00100A0622046FFF722FF3A
:1005300021686FF00C00086068060CD5F0070AD03F
:10054000A06A40F48030A062204600F093F8216851
:100550006FF00100086070BD2DE9F0414FF0000719
:1005600004003D467ED0A06A002628B9E66284F8E1
:100570002460204600F080F82046FFF78FFEA16A35
:10058000C90600D420B1A06A40F01000A06269E062
:10059000A16A21F4885141F00201A1626268E16917
:1005A000237B0A4347EA43010A43A1684FF480775B
:1005B000B94209D0012907D05FF0000194F814C0B6
:1005C000BCF1010F02D00AE03946F7E7F3B1A36AA4
:1005D00043F02003A362E36A43F00103E36223686C
:1005E000D3F804C02CF4694C4CEA010CC3F804C0E5
:1005F00021688B68DFF870C003EA0C0313438B603B
:10060000A168B9420BD0012909D00CE0DFF85CC029
:10061000A3690CEB43330B4343F40061DFE7218A0A
:100620000D05A5F580152168CB6A23F470032B43D3
:10063000CB62216889680E4B1940914208D1E6626D
:10064000A16A21F0020141F00101A162BDE8F0813F
:10065000A06A20F0020040F01000A062E06A40F0C2
:100660000100E0620120F1E7FDF7E1FF00E0FFFF9C
:10067000FE0E1FFF7047000000B585B000210091FD
:1006800001910291039100681249884220D11248D9
:10069000816941F400718161816901F40071049103
:1006A000816941F0040181618069694600F00400BC
:1006B00004900220009003200190084800F0FAF80E
:1006C00000221146122000F057FA122000F046FADC
:1006D00005B000BD002401400010024000080140A8
:1006E00070B5044690F8240001280DD0012084F84C
:1006F00024002046FFF7FEFD02004FF0000005D069
:1007000084F82400104670BD022070BDA16A40F23A
:100710000123994341F48071A1621F4D23681F4951
:10072000AB4218D10E6816F4702F14D0A66A46F4A6
:100730008016A6620E68760505D5A66A26F40056D0
:1007400046F48056A662A66AF6040AD5E66A26F042
:100750000606E66206E0A66A26F48016A6625E68D1
:10076000E9E7E06284F824006FF002001860206876
:100770008368C3F34243072B05D1A84208D1096817
:1007800011F4702F04D0816841F480118160B9E7C1
:10079000816841F4A001F9E70028014004240140E8
:1007A00010B5044690F82400012807D0012084F8F1
:1007B00024002046FFF772FD10B107E0022010BDB3
:1007C000A16A21F4885141F00101A162002184F85D
:1007D000241010BD10B590F821100022022905D078
:1007E0000421816380F82020012010BD01680B687E
:1007F00023F00E030B6001680B6823F001030B600C
:1008000090F84030C46B012101FA03F3636080F873
:10081000211080F82020104610BD000010B590F87F
:1008200021100024022903D00421816301243DE02A
:1008300001680A6822F00E020A6001680A6822F064
:1008400001020A601A4A0168914201D1012121E0A6
:10085000174A1432914201D110211BE0144A283268
:10086000914201D1891515E0114A3C32914201D1E2
:1008700089140FE00E4A5032914202D14FF4803178
:1008800008E00B4A6432914202D14FF4801101E03A
:100890004FF08071064A083A5160012180F821101A
:1008A000002180F82010416B01B18847204610BD1F
:1008B000080002402DE9F84FDFF8B8910024A9F1B3
:1008C000040B23460F2709F1040AABF1040EC9E01B
:1008D0000125A5402A40AA427DD1674ED1F804C027
:1008E000ACEB0608B44532D014DCBCF1030F3AD0AF
:1008F00009DCBCF1000F2AD0BCF1010F1CD0BCF107
:10090000020F31D11DE0BCF1110F17D0BCF1120F55
:100910002AD119E0B8F5881F19D006DCB8F5803F58
:1009200015D0B8F5801F1FD111E0B8F5001F0ED00B
:10093000B8F5041F18D10AE0CB6815E0CB681B1D81
:1009400012E0CB6808330FE0CB680C330CE08B6807
:100950002BB1012B4FF0080303D0456104E00423C1
:1009600002E0056100E00023FF2A01D8064601E00D
:1009700000F104064FEA840501D9A5F12005D6F857
:10098000008007FA05FC28EA0C0803FA05F548EA96
:100990000508C6F800804D68ED0062D5374DAE6998
:1009A00046F00106AE61AD6924F0030605F00105CD
:1009B0000095334D06EB050CDCF80850A607360F02
:1009C00007FA06F825EA0805DFF8B880404503D1A4
:1009D0004FF0000817E044E0DFF8AC80404502D15A
:1009E0004FF001080FE0DFF8A480404502D14FF03E
:1009F000020808E0DFF89880404502D14FF0030874
:100A000001E04FF0040808FA06F848EA0508CCF8B7
:100A100008804D68D9F80060ED024D4601D51643B7
:100A200000E096432E604D68DAF80060AD0255464E
:100A300001D5164300E096432E604D68DBF8006058
:100A4000AD035D4601D5164300E096432E604D6828
:100A5000DEF80060ED03754601D5164300E09643CD
:100A60002E60641C0D682A46E5407FF431AFBDE876
:100A7000F88F00000804014000001110001002402F
:100A80000000014000080140000C0140001001403E
:100A9000001401400AB1016170470904FBE700003E
:100AA0000148806870470000040000200248816807
:100AB000027811448160704704000020074810B597
:100AC000016841F010010160032000F075F80F206B
:100AD00000F006F800F024F8002010BD00200240CD
:100AE00070B50D4D04464FF47A712878B1FBF0F0E3
:100AF0000A490968B1FBF0F000F052FB48B9102C2C
:100B000007D200222146501E00F036F800206C600B
:100B100070BD012070BD0000040000201000002006
:100B20000C4808B5816941F001018161816901F0DA
:100B300001010091C16941F08051C161C06900F0BB
:100B4000805000900448416821F0E06141F08061EC
:100B5000416008BD0010024000000140002809DB90
:100B600000F01F02012191404009800000F1E020C7
:100B7000C0F8001170470000F0B40E4B1B680C4623
:100B8000C3F30223C3F10705042D00D90425191D61
:100B9000072901D2002300E0DB1E012606FA05F139
:100BA000491E214099409E40761E16403143F0BCBC
:100BB00000F0BFBE0CED00E0064900F00702086837
:100BC0004FF6FF03184040EA0220034A1043086032
:100BD000704700000CED00E00000FA052DE9F84335
:100BE00005460078354CC00754D0E0690026C000A7
:100BF00008D4E06940F08050E061E069012600F02F
:100C0000805000902E480168C90512D401688046C2
:100C100041F480710160FFF743FF074605E000BF24
:100C2000FFF73EFFC01B642823D8D8F80000C0059A
:100C3000F6D5206A10F4407021D0A98801F44071E3
:100C400081421CD0206A1F49012220F440700A60B2
:100C500000220A602062C00711D0FFF721FF07467B
:100C600041F2883808E000BFFFF71AFFC11B414579
:100C700002D90320BDE8F883206A8007F4D5206AF2
:100C8000696820F44070084320621EB1E06920F0DA
:100C90008050E0612878800705D56068A96820F455
:100CA0004040084360602878C00605D56068E96860
:100CB00020F48000084360600020DBE70010024061
:100CC00000700040400442422DE9F0470F46050005
:100CD00061D0434E306800F00700B84209D2306856
:100CE00020F0070038433060306800F00700B84259
:100CF00051D128683B4C810712D5400703D5606865
:100D000040F4E06060602878000703D5606840F434
:100D1000605060606068A96820F0F000084360607F
:100D20002878C00728D06868012810D021680228D8
:100D300010D0890700292EDA616821F003010143F0
:100D40006160FFF7ADFE804641F288390DE0216811
:100D50008903EFE78901EDE7FFF7A2FEA0EB0801A9
:100D6000494502D90320BDE8F0876068696800F052
:100D70000C00B0EB810FEFD1306800F00700B842F3
:100D80000BD9306820F0070038433060306800F03D
:100D90000700B84201D00120E5E72878400705D5D3
:100DA0006068E96820F4E060084360602878000724
:100DB00006D56068296920F4605040EAC10060608F
:100DC00000F038F86168084AC1F30311515CC8406B
:100DD0000649086006480068FFF782FE0020C2E767
:100DE0000020024000100240CE1A0008100000202F
:100DF000080000200448054900684968044AC1F316
:100E00000221515CC84070471000002000100240D1
:100E1000DE1A00080448054900684968044AC1F31D
:100E2000C221515CC84070471000002000100240F1
:100E3000DE1A00080E4A51680E4801F00C03042B1C
:100E400011D0082B0FD10C48C1F38343C903C05CF8
:100E50000AD55168084AC1F34041921E515C054AC7
:100E60005043B0FBF1F0704704494843704700001D
:100E70000010024000127A00BE1A000800093D006E
:100E80002DE9F84F040070D02078C04DC00749D03C
:100E90006868C0F38100012807D06868C0F381004A
:100EA000022809D16868C00306D52868800339D5AF
:100EB00060680028E7D035E06068B0F5803F0BD06F
:100EC00010B1B0F5A02F11D0286820F48030286030
:100ED000286820F4802002E0286840F480302860F0
:100EE000606890B1FFF7DCFD06460AE0286840F430
:100EF00080202860F0E700BFFFF7D2FD801B642848
:100F000073D828688003F7D50CE0FFF7C9FD0646C3
:100F100005E000BFFFF7C4FD801B6428F0D82868F7
:100F20008003F7D420789A4E80074FF001094FF0E4
:100F3000000839D5686810F00C0F07D06868C0F356
:100F40008100022809D16868C00306D42868800798
:100F500014D52069012808D110E02069B0B1C6F885
:100F60000090FFF79DFD074605E00AE1FFF798FDB9
:100F7000C01B0228C4D828688007F7D52868616993
:100F800020F0F80040EAC10028600DE0C6F80080BB
:100F9000FFF786FD074604E0FFF782FDC01B02282D
:100FA00023D828688007F7D4207800072CD5794803
:100FB000A169D9B1C0F80090FFF772FD074604E0BF
:100FC000FFF76EFDC01B02280FD8686A8007F7D5AF
:100FD00071484FF4FA510068B0FBF1F0009000BF87
:100FE0000098411E0091FAD20EE080E0C0F8008027
:100FF000FFF756FD074604E0FFF752FDC01B02282D
:1010000075D8686A8007F7D42078400760D5E8690A
:101010000027C00008D4E86940F08050E861E86922
:10102000012700F0805000905C480168C90513D486
:101030000168834641F480710160FFF731FD82460B
:1010400006E000BFFFF72CFDA0EB0A0064284ED895
:10105000DBF80000C005F5D5E06801280AD008B12A
:10106000052813D0286A20F001002862286A20F0A1
:10107000040002E0286A40F001002862E06841F2C2
:10108000883B98B1FFF70CFD82460BE0286A40F0E0
:1010900004002862EEE700BFFFF702FDA0EB0A01A3
:1010A00059455AD8286A8007F6D50CE0FFF7F8FCB6
:1010B000824605E0FFF7F4FCA0EB0A0159454CD845
:1010C000286A8007F6D41FB1E86920F08050E861F3
:1010D000E06988B36968C1F38101022944D002281C
:1010E000C6F8608004D0FFF7DBFC044638E034E04B
:1010F000FFF7D6FC074604E0FFF7D2FCC01B02282E
:101100002BD828688001F7D4206AB0F5803F05D13C
:101110006868A16820F4003008436860D4E90801D9
:101120000843696821F4741108436860C6F8609048
:10113000FFF7B6FC044606E025E000BFFFF7B0FC71
:10114000001B022809D828688001F7D51BE000BFE2
:10115000FFF7A6FC001B022802D90320BDE8F88F88
:1011600028688001F4D40EE00128F7D06868226A6C
:1011700000F48031914204D1616A00F47010884219
:1011800001D00120EAE70020E8E70000001002405B
:1011900000004242800442421000002000700040E3
:1011A00010B5401EB0F1807F01D3012010BD4FF07B
:1011B000E02460610F21601700F0BBFB0020A061FC
:1011C00007202061002010BD70477047F8B5016806
:1011D00004460868CA684B6910F00F0F4FF000050D
:1011E00059D003F0010602F49077374365D0C10768
:1011F00005D0D10503D5616C41F00101616441075F
:1012000005D5D90703D0616C41F002016164810703
:1012100005D5D90703D0616C41F004016164010771
:1012200007D502F02001314303D0616C41F0080181
:101230006164616C00293AD0800604D5900602D51D
:10124000204600F05DFA20684069616CC0F38010B0
:10125000090700D460B3204600F02BFA20684069EB
:10126000400621D52068143050E8001F21F04001CD
:1012700040E80012002AF5D1E06BA8B16D49416346
:10128000E06BFFF7CBFA002811D0E06B416B01B0A7
:10129000BDE8F040084783060FD593060DD52046DC
:1012A000BDE8F84000F02CBA2046FFF78EFFF8BDED
:1012B0002046FFF78AFF6564F8BD266B2023012EC8
:1012C0007CD1C6067AD5D60678D5086848680090DD
:1012D00048694FF00206400640D5E16B0868406857
:1012E0000004000CE8D0A28D8242E5D9E08588692F
:1012F00020282DD020680C3050E8001F21F4807188
:1013000040E80012002AF5D12068143050E8001F90
:1013100021F0010140E80012002AF5D120681430C4
:1013200050E8001F21F0400140E80012002AF5D1EA
:1013300084F84230256320680C3050E8001F21F00B
:10134000100140E80012002AF5D1E06BFFF742FAE5
:101350006663A08DE18D401A81B22AE0A08DE18DF7
:10136000401A81B2E08D0028A6D00029A4D02268BE
:101370000C3252E8000F20F4907042E80007002F72
:10138000F5D12068143050E8002F22F0010240E827
:101390000027002FF5D184F84230256320680C30F7
:1013A00050E8002F22F0100240E80023002BF5D176
:1013B00066632046FFF708FFF8BDFFE705062BD55B
:1013C000150629D594F841002128F5D1A068B0F57B
:1013D000805F01D12069B0B1206A411C216221687F
:1013E00000784860E08C401E0004000CE084E3D1EB
:1013F0002068C16821F08001C1602068C16841F0A7
:101400004001C160D8E7206A0088C0F30800486046
:10141000206A801C2062E5E74006CDD55006CBD57A
:10142000CA68204622F04002CA6084F8413000F0C9
:10143000D4F8C1E7A316000870B5040004D094F8EE
:101440004100002510B106E0012070BD84F8405035
:10145000204600F023F8242084F841002068C16869
:1014600021F40051C160204600F0ACF92068016908
:1014700021F4904101612068416921F02A01416114
:101480002068C16841F40051C1606564202084F87F
:10149000410084F842006563002070BD30B585B01E
:1014A000002400940194029403940068184988422F
:1014B0002CD11848816941F480418161816901F42E
:1014C00080410491816941F0040181618069124D7C
:1014D00000F0040004904FF400700090022001908E
:1014E0000320039069462846FFF7E4F92815CDE963
:1014F0000004694628460294FFF7DCF90022012126
:101500002520FFF739FB2520FFF728FB05B030BD6C
:1015100000380140001002400008014090F84230BD
:10152000202B01D00220704721B11AB100230363A0
:1015300000F0A4B90120704770472DE9F843044634
:1015400090F84100984616460D46202802D0022009
:10155000BDE8F88385B17EB100206064212084F865
:101560004100FFF79DFAA6848146E684A068202703
:10157000B0F5805F02D003E00120E9E7206910B1F7
:101580002E4600250EE000260CE08021204600F0CB
:1015900090F9A8B9C6B116F8010B21684860E08C33
:1015A000401EE084E08C4B464FF00002CDF80080F6
:1015B0000028EAD14FF04001204600F07AF940B10E
:1015C00084F841700320C3E735F8020BC0F308002C
:1015D000E3E784F841700020BAE77047FEE70000B7
:1015E0003EB5002410480094019402940D49846093
:1015F000016004730475012505614FF460214460A6
:10160000C161FEF7A9FF08B172B6FEE70095CDE90A
:10161000015469460448FEF7AFFE002801D072B6B7
:10162000FEE73EBD002401401C000020FEE7FEE76F
:1016300070477047FFF73ABA30B593B02821684633
:10164000FEF7C2FD14210AA8FEF7BEFD002401200A
:101650000F94022504900095102011940590109489
:10166000129407946846FFF70BFC08B172B6FEE7C8
:101670000F20CDE90A040C940D9400210AA80E94C1
:10168000FFF722FB08B172B6FEE70FA80F95119481
:10169000FFF7A4FA002801D072B6FEE713B030BD00
:1016A000704710B5406A0021C185C184FFF78DFDE8
:1016B00010BD01680C3151E8002F22F4907241E80E
:1016C0000023002BF5D10168143151E8002F22F0DE
:1016D000010241E80023002BF5D1016B012909D15A
:1016E00001680C3151E8002F22F0100241E800237C
:1016F000002BF5D1202180F84210002101637047B2
:1017000008B590F84210222901D0022008BD826855
:101710004FF480539A4201D1016921B1816A9A4202
:101720001BD04AB10AE00268816A5268C2F308021B
:101730000A80816A891C08E0026972B102685268F5
:1017400002F07F020A70816A491C8162C18D491EC4
:101750000904090CC18503D01BE002685268F1E757
:101760000168CA6822F02002CA600168CA6822F4CF
:101770008072CA6001684A6922F001024A61202130
:1017800080F8421000214163026B012A03D0FFF769
:10179000D3FE002008BD016301680C3151E8002F21
:1017A00022F0100241E80023002BF5D101680A68FD
:1017B000D20602D50A6849680091818DFFF704FDC1
:1017C000E7E7000070B5044600680169E26821F4AB
:1017D0004051114301612169A068084361690843D0
:1017E0002168CA6841F20C639A430243CA602068C8
:1017F0004169A26921F44071114341611E49206889
:10180000884202D1FFF706FB01E0FFF7F3FA00EB95
:10181000C00101EB0012606864218000B2FBF0F3AC
:10182000B3FBF1F36FF018067343B2FBF0F5B2FBB4
:10183000F0F605EB8305322303EB0515B5FBF1F557
:10184000B6FBF1F605F0F00505EB0615B2FBF0F678
:10185000B2FBF0F0B0FBF1F06FF01802504306EB72
:10186000800003EB0010B0FBF1F0216800F00F00E6
:101870002844886070BD0000003801408162828584
:10188000C28500214164222180F84210016921B102
:101890000168CA6842F48072CA6001684A6942F00D
:1018A00001024A610068C16841F02001C160002066
:1018B00070472DE9F843984617460D460446089EA2
:1018C00024E0701C22D0FFF7EBF8A0EB0800B04238
:1018D0001AD8CEB12068C168490717D5802D15D018
:1018E000402D13D00168C94309070FD401680025B2
:1018F000406800902046FFF7DCFE0820606484F812
:1019000040500120BDE8F8830320FBE72068006811
:1019100035EA000004D00020B842D2D00020F1E720
:101920000120F9E70148FFF751BC00004C000020FE
:10193000FEE70907090E002804DB00F1E02080F82B
:101940000014704700F00F0000F1E02080F8141D33
:101950007047000010B50C48FEF7C2FE0A48FEF7BB
:101960008AFD0A4C20600848FEF71AFF20880849C3
:10197000020A4FF0FF338A71C871BDE81040082297
:101980000448FFF7DABD00001C0000200000002022
:10199000140000204C00002086B0FFF78FF8FFF7FE
:1019A0004BFE002422480094019402940394816920
:1019B00041F020018161816901F020010491816978
:1019C00041F00401816180691A4D00F00400049027
:1019D000002278212846FFF75DF87820009001204A
:1019E000CDE901040220039069462846FEF762FF14
:1019F000FFF7F6FD1148104901604FF4E131C0E9ED
:101A000001140C21C460C0E904418461C461FFF782
:101A100013FD08B172B6FEE70849092248310748AC
:101A2000FFF77CFD00F00CF8FFF794FFFAE70000E9
:101A30000010024000080140003801404C00002026
:101A40001B4810B501785A2930D119490279194833
:101A5000097A652A06D0662A0BD0672A18D0682A28
:101A60000DD11CE0012902D00022082105E001224D
:101A7000FBE701290AD000221021FFF70BF8BDE88F
:101A8000104009220A490C48FFF748BD0122F3E73C
:101A9000012902D000222021EFE70122FBE70129E2
:101AA00002D000224021E8E70122FBE710BD000040
:101AB00094000020000801404C00002001020203B5
:101AC0000405060708090A0B0C0D0E0F1010000084
:101AD00000000000000001020304060708090000DE
:101AE0000000010203040000081B000800000020A1
:101AF0001C00000028010008241B00081C00002016
:101B0000E40600004401000800000000010000009D
:101B1000100000000000000000127A005AA50582A3
:041B2000630000005E
:04000005080000ED02
:00000001FF
